:020000040000FA
:100000000C94F2000C941A010C941A010C941A012D
:100010000C941A010C941A010C941A010C941A01F4
:100020000C941A010C941A010C941A010C941A01E4
:100030000C941A010C941A010C941A010C941A01D4
:100040000C94531D0C941A010C94C31D0C949D1D0B
:100050000C941A010C941A010C941A010C941A01B4
:100060000C941A010C941A0100407A10F35A00A063
:10007000724E18090010A5D4E80000E87648170071
:1000800000E40B54020000CA9A3B000000E1F505B1
:10009000000080969800000040420F000000A086FB
:1000A00001000000102700000000E803000000002D
:1000B0006400000000000A000000000001000000D1
:1000C00000002C76D888DC674F0823DFC1DFAE59EB
:1000D000E1B1B796E5E3E453C63AE651997696E87E
:1000E000E6C28426EB898C9B62ED407C6FFCEFBC02
:1000F0009C9F40F2BAA56FA5F490055A2AF75C932D
:100100006B6CF9676DC11BFCE0E40D47FEF520E662
:10011000B500D0ED902E0300943577050080841E45
:10012000080000204E0A000000C80C333333330FA0
:10013000986E12831141EF8D2114893BE65516CF3D
:10014000FEE6DB18D1844B381BF77C1D901DA4BB49
:10015000E424203284725E228100C9F124ECA1E5FE
:100160003D27CDCCCC3D0AD7233C17B7D13877CC2F
:100170002B329595E6241FB14F0A00002041000064
:10018000C84200401C4620BCBE4CCA1B0E5AAEC51D
:100190009D74000000080002010000030407000035
:1001A00000000000000000000000250028002B00D7
:1001B00000000000240027002A00040404040404B2
:1001C0000404020202020202030303030303010206
:1001D00004081020408001020408102001020408D5
:1001E0001020F51D11241FBECFEFD8E0DEBFCDBF1C
:1001F00012E0A0E0B1E0E0E4F4E502C005900D9269
:10020000A03BB107D9F723E0A0EBB2E001C01D92FB
:10021000AA3FB207E1F710E0C2EFD0E004C0219797
:10022000FE010E941428C13FD107C9F70E94911E08
:100230000C941E2A0C940000CF93DF93EC0188816C
:100240009981DC01ED91FC910190F081E02D64E257
:1002500070E00995009741F02FE1FC01238321E034
:100260002283DF91CF91089521E02A83FACF8CBDBC
:100270009DBD089590E0FC01E253FE4F2491865409
:100280009E4FFC018491882399F090E0880F991F7C
:10029000FC01E055FE4FA591B491FC01EA55FE4FDB
:1002A000859194918FB7F894EC91E22BEC938FBFEA
:1002B0000895FC01818D928D089508953FB7F894BB
:1002C0008091E1029091E202A091E302B091E402F8
:1002D00026B5A89B05C02F3F19F00196A11DB11DA1
:1002E0003FBFBA2FA92F982F8827BC01CD01620FDD
:1002F000711D811D911D42E0660F771F881F991F98
:100300004A95D1F708958F929F92AF92BF92CF9264
:10031000DF92EF92FF924B015C010E945E016B0144
:100320007C010E945E016C197D098E099F09683E5F
:10033000734081059105A8F321E0821A9108A10874
:10034000B10888EEC80E83E0D81EE11CF11C8114B0
:100350009104A104B10429F7FF90EF90DF90CF90B2
:10036000BF90AF909F908F9008952FB7F8946091B1
:10037000DD027091DE028091DF029091E0022FBFDA
:100380000895AF92BF92CF92DF92EF92FF920F93B8
:100390001F93CF93DF936C017B018B01040F151F1B
:1003A000EB015E01AE18BF08C017D10759F0699183
:1003B000D601ED91FC910190F081E02DC6010995E7
:1003C000892B79F7C501DF91CF911F910F91FF9094
:1003D000EF90DF90CF90BF90AF900895FC01538DC8
:1003E000448D252F30E0842F90E0821B930B54170F
:1003F00010F0CF96089501970895FC01918D828D9C
:10040000981761F0A28DAE0FBF2FB11D5D968C9134
:10041000928D9F5F9F73928F90E008958FEF9FEF73
:100420000895FC01918D828D981731F0828DE80F2F
:10043000F11D858D90E008958FEF9FEF0895FC01E9
:10044000918D228D892F90E0805C9F4F821B9109B6
:100450008F739927089588E093E00E941F0221E09E
:10046000892B09F420E0822F089580E090E0892B09
:1004700029F00E942B0281110C9400000895FC01C8
:10048000A48DA80FB92FB11DA35ABF4F2C91848DF5
:1004900090E001968F739927848FA689B7892C9352
:1004A000A089B1898C91837080648C93938D848DA5
:1004B000981306C00288F389E02D80818F7D8083A8
:1004C0000895EF92FF920F931F93CF93DF93EC0168
:1004D00081E0888F9B8D8C8D98131AC0E889F989EB
:1004E000808185FF15C09FB7F894EE89FF896083EE
:1004F000E889F98980818370806480839FBF81E06F
:1005000090E0DF91CF911F910F91FF90EF900895B0
:10051000F62E0B8D10E00F5F1F4F0F731127E02E8B
:100520008C8D8E110CC00FB607FCFACFE889F989C3
:10053000808185FFF5CFCE010E943F02F1CFEB8D88
:10054000EC0FFD2FF11DE35AFF4FF0829FB7F89497
:100550000B8FEA89FB8980818062CFCFCF93DF93B5
:10056000EC01888D8823B9F0AA89BB89E889F989CB
:100570008C9185FD03C0808186FD0DC00FB607FC00
:10058000F7CF8C9185FFF2CF808185FFEDCFCE0133
:100590000E943F02E9CFDF91CF910895FC012081B5
:1005A0002EBD9B012150310941F051810DB407FE50
:1005B000FDCF4EB55EBD4193F5CF61507109860FF9
:1005C000971F0DB407FEFDCF2EB5FC0120830895C3
:1005D000E0910203F0910303808190910103892B44
:1005E00080830895E0910203F0910303908180914C
:1005F000010380958923808308958EBD00000DB48A
:1006000007FEFDCF8EB50895AF92BF92CF92DF92D5
:10061000EF92FF920F931F93CF93DF93CDB7DEB787
:1006200028970FB6F894DEBF0FBECDBF8C017B01BB
:100630006A01809105038333E1F45801A40EB51ECD
:10064000A016B10609F46FC00E94F20280EF0E946A
:10065000FD02812F0E94FD02802F0E94FD020F5F8C
:100660001F4FF70181917F010E94FD020E94E80265
:10067000E7CF5B01A40EB51E8433C1F40E94F202E1
:1006800019830A838D2D80688B83CC8264E070E0AF
:10069000CE0101960E94CE02AE14BF0409F441C0FF
:1006A000F70181917F010E94FD02F6CF0E94F202C4
:1006B0000F3F110509F028F419820A8384E08B8327
:1006C0000CC017FD17C019820A8333E016950795F1
:1006D0003A95E1F7007E0C600B8386E0C816D104E2
:1006E000A0F5F701DE011496EA15FB0599F081915A
:1006F0008D93FACFC80126E0969587952A95E1F764
:10070000807E19830A830115104C10F48461D7CFC1
:100710008C61D5CFB6016D5F7F4FCE0101960E94EF
:10072000CE020E94E802C60128960FB6F894DEBFFA
:100730000FBECDBFDF91CF911F910F91FF90EF9032
:10074000DF90CF90BF90AF90089563E070E0CE014E
:1007500001960E94CE02F70181917F010E94FD0265
:10076000AE14BF04C1F7DDCFCF93DF931F92CDB797
:10077000DEB7898341E050E0BE016F5F7F4F90E0BC
:1007800080E00E9404030F90DF91CF91089590E0E4
:1007900020910503233339F40C96982F990F990F64
:1007A000990F80E008954896F8CFDA01E0910603AA
:1007B000F0E0FE2FEE27E60FF71F90E0982F882736
:1007C000A901BD018E0F9F1F0C940403CF93DF93EB
:1007D00000D0CDB7DEB779836A8322E030E0AE0186
:1007E0004F5F5F4F60E170E00E94D5030F900F9064
:1007F000DF91CF910895CF93DF9300D0CDB7DEB7CF
:1008000079836A8322E030E0AE014F5F5F4F64E09E
:1008100070E00E94D5030F900F90DF91CF91089563
:10082000CF93DF931F92CDB7DEB72091060330E060
:10083000322F2227260F371F90E0982F88274983D1
:1008400041E050E0BE016F5F7F4F820F931F0E9417
:1008500004030F90DF91CF910895CF93DF931F9200
:10086000CDB7DEB76983DC01ED91FC910280F381A5
:10087000E02D41E050E0BE016F5F7F4F09950F9082
:10088000DF91CF910895FC019485FB018485981335
:1008900003C081E0943008F080E00895CF93DF93A7
:1008A0001F92CDB7DEB76983DC01ED91FC91028028
:1008B000F381E02D41E050E0BE016F5F7F4F09956D
:1008C0000F90DF91CF9108950895FF920F931F939A
:1008D000CF93DF93EB01FC01178A168A2A8121113D
:1008E00009C02B81211106C02C81211103C02D814B
:1008F000222301F141155105E9F08A01FC01F08C38
:1009000080E591E00E943701AE014E5F5F4F24E029
:1009100030E06CE070E08F2D0E94D503B8018F2D80
:100920000E94E60381E090E0DF91CF911F910F914B
:10093000FF90089580E0F7CFFC01848595850895A8
:10094000FC0184899589089522E931E0FC01318315
:100950002083FB014089518962897389FC014283AC
:100960005383648375830895DC01ED91FC91048CBD
:10097000F58DE02D099490E080E008956F3FB1F08F
:10098000E62FE295EF7044E0E49F90011124DC0132
:10099000ED91FC91E20FF31F6F70B8E06B9FC00107
:1009A000112462817381860F971F089590E080E083
:1009B0000895982F80336CF08A3324F08F3524F01B
:1009C0008B3724F481E0089581341CF081E09B355D
:1009D0000CF080E00895FC018485811114C0A7818A
:1009E000B085818592852FEF3FEFA817B90730F4C6
:1009F000CD010196908787832C9130E037FD20E070
:100A0000238781E08487838508951F93CF93DF93A5
:100A1000EC01162F0E94EB04811306C01C8681E0B6
:100A2000DF91CF911F91089580E0FACF0F931F932C
:100A3000CF93DF938C01EB018991882369F0C80182
:100A40000E94EB04882379F0FE013197908198137E
:100A50000DC0F8011486F0CF90E080E0DF91CF91D7
:100A60001F910F91089582E090E0F8CF83E090E02D
:100A7000F5CFCF93DF93EC01CE010E94EB048B30D6
:100A80004CF489305CF4882359F081E08E8390E047
:100A900080E00BC08D3011F08032B9F71C86ECCFAE
:100AA0008E81811105C081E090E0DF91CF910895A2
:100AB00082E090E0FACF4F925F926F927F928F9296
:100AC0009F92AF92BF92CF92DF92EF92FF920F93DD
:100AD0001F93CF93DF93EB01DC012C912B32D9F1E3
:100AE0002D32D1F50196FF24F394FC01208130EDE5
:100AF000320F3A3018F02E3209F042C18C0160E01A
:100B000070E0CB01F801219130ED832E820E39E0A7
:100B1000381520F16A3949E97407840749E19407D7
:100B200038F5AAE0B0E09B01AC010E94FB26912CB5
:100B3000B12CA12C24013501409450946094709400
:100B4000461657066806790698F0680D791D8A1DC5
:100B50009B1D8F01D7CF0196F12CC7CF211108C063
:100B6000FF20E9F161307105810550E89507A0F09B
:100B7000E12CBAE08B2E912CA12CB12C61157105C2
:100B800030E883079105B0F1A50194010E943D274B
:100B9000CA01B901E394F2CF2C8120782A602C831A
:100BA0009B01AC0188279927DC01821B930BA40BC6
:100BB000B50B88839983AA83BB838F2DDF91CF9157
:100BC0001F910F91FF90EF90DF90CF90BF90AF906B
:100BD0009F908F907F906F905F904F9008952C81A1
:100BE000207828602C83688379838A839B83FF2401
:100BF000F394E3CFF801D8012D918D0130ED320F40
:100C00003A3010F4E394F6CF2E3201F58F010F5FE6
:100C10001F4FF8010F5F1F4F2081A0EDDA2ED20E7B
:100C2000B9E0BD1598F06C3CECEC7E07ECE08E076B
:100C3000910578F7AAE0B0E09B01AC010E94FB2689
:100C40006D0D711D811D911DEA94E3CF20812F7DD3
:100C500010E000E0253409F05BC021812D32D1F590
:100C60003296CC24C394DF0110E000E02E2D0E2C30
:100C7000000C330B5AE0B52EFD01DD9040ED4D0D1B
:100C80004A3008F040C0B09EA001B19E500D112422
:100C90000D2DDD0C110B00531109040F151FA801B8
:100CA000420F531F473251053CF38C81CC20C9F0D1
:100CB00040E050E060E070E8F11003C040E050E038
:100CC000BA0180788C608C83488359836A837B83E4
:100CD000FC2C73CF2B3219F03196C12CC4CF329635
:100CE000FCCF40E050E060E87FEFF11004C040E04E
:100CF00050E060E87FE780788C608C83488359837C
:100D00006A837B8374CFCC2019F01195019511096A
:100D10002081211135C00E0D111DE7FC1A950E948E
:100D2000DC253AE7C32E31E0D32E101611063CF035
:100D300011950195110942E6C42E41E0D42EE12C13
:100D40000115110591F000FF0CC024E0E29EF001B6
:100D50001124EC0DFD1D25913591459154910E9472
:100D60003D2615950795E394EBCFF11090582C8113
:100D700020782C602C83688379838A839B8337CF88
:100D8000F12C1BCFCF93DF9300D000D01F92CDB7B3
:100D9000DEB7FC0194819F77963091F030F4943067
:100DA00020F560E070E0CB0111C09A30B9F09C30C2
:100DB00051F19830B1F7608171818281938104C0D3
:100DC000608170E090E080E00E94DC250F900F9041
:100DD0000F900F900F90DF91CF91089560817181F6
:100DE000828193810E94DE25F1CF808191811D82D5
:100DF000BE016F5F7F4F04960E945B05CE01019696
:100E00000E94C206E3CF6081718182819381DECF2F
:100E1000FC019289915084E0989F90011124A0894F
:100E2000B189A20FB31F1296ED91FC9113973097E1
:100E3000E9F011962C9111978C912817B8F481E064
:100E4000820F11968C9388E0289FA0011124E40F53
:100E5000F51F309759F014828FEF85831782168221
:100E6000BF01892F8295807F820F089560E070E036
:100E70008FEF0895DF92EF92FF920F931F93CF931E
:100E8000DF93EC017B01D12C688979898A89D81696
:100E9000E0F484E0D89E80011124060F171FD801CA
:100EA00012966D917C916115710541F0D701ED911C
:100EB000FC910280F381E02DC7010995F8011382AE
:100EC000128210821182D394DFCF1A8A8FEF8C8B1B
:100ED000C617D70761F0D701ED91FC910280F3812D
:100EE000E02DC7010995D98BC88B84E08B8BDF91EE
:100EF000CF911F910F91FF90EF90DF900895DB014C
:100F0000ED91FC9111970280F381E02DBC01CD01A0
:100F10000994CF93DF93EC01E881F981B0E0A0E080
:100F20003097F9F09F012C5F3F4F62177307A1F4D0
:100F3000928191509283911114C080819181109778
:100F400041F08D939C93BA01CF01DF91CF910C9426
:100F50007F0799838883F7CFDF010190F081E02D2F
:100F6000DFCFDF91CF9108958F929F92AF92BF9282
:100F7000CF92DF92EF92FF920F931F93CF93DF9365
:100F80008C01EB01FC01848180FF0AC048815981FA
:100F9000608171816C5F7F4FCE0103960E9489074B
:100FA000F8018481807681F10115110569F1D08005
:100FB0005E01F5E1AF0EB11C4E0183E0880E911C7D
:100FC000EFEFDE16F1F06D2DC5010E94BE047C012D
:100FD000FC01C580848187FF07C0488159816681F3
:100FE0007781C4010E948907BE01C7010E94B4072E
:100FF000F701848180788483898D8583D98EDC2C68
:10100000DFCFF801D082D182DF91CF911F910F9174
:10101000FF90EF90DF90CF90BF90AF909F908F9018
:101020000895EF92FF920F931F93CF93DF937C016C
:101030008B01EA016F3F710509F0B0F4E881F98195
:101040000480F581E02DAB014B5F5F4FBC01CE0109
:101050000995009749F0FC010383DF91CF911F911F
:101060000F91FF90EF900895E881F9810280F3815C
:10107000E02DB701CE01099590E080E0EECFFF9220
:101080000F931F93CF93DF93EC01F62E8A819B8100
:101090000097C9F06C817D81FC012381261717061A
:1010A00091F408811981F80140815181660F771F01
:1010B0006F5F7F4F0E941108009719F421E0F8013B
:1010C00022839B838A838A819B81009759F02C819C
:1010D0003D81A9014F5F5F4F5D834C83820F931F5A
:1010E000FC01F482DF91CF911F910F91FF90089541
:1010F0009F92AF92BF92CF92DF92EF92FF920F93A7
:101100001F93CF93DF9300D000D01F92CDB7DEB7EF
:101110008C010E94EB04D82EF8011486F12CE12CEE
:1011200060EFC62EC8010E94EB04F8011486D816A1
:1011300009F4B3C0811113C082E090E00F900F90CA
:101140000F900F900F90DF91CF911F910F91FF9013
:10115000EF90DF90CF90BF90AF909F9008958C3527
:1011600009F099C0C8010E94EB04882329F3E4E93F
:10117000F1E0853709F083C0F801148654E0952E1C
:10118000B12CA12CC8010E94EB048823A9F2813460
:1011900034F48053803130F083E090E0CFCF8F7D06
:1011A0008753F8CF44E0AA0CBB1C4A95E1F7A82A64
:1011B000F80114869A949110E5CFC501985D8115C8
:1011C000944020F47501F3E0FF22ACCFC5019C5D93
:1011D00081159440A8F483E0B822B701762F6627E2
:1011E000770F770F6A297B2990E080E001966038BD
:1011F00071058105910540F4C8010E943F0892CF16
:10120000B50190E080E0F3CF1982262F2F7320687C
:101210002A8326E096958795779567952A95D1F745
:101220006032710580F4606C6B835E01E4E0AE0EA9
:10123000B11CF50162915F01662309F473CFC80107
:101240000E943F08F6CF262F2F7320682B8386E05D
:10125000769567958A95E1F76031710538F4606E8F
:101260006C835E01F5E0AF0EB11CE3CF60686C8368
:10127000CD825E0126E0A20EB11CDBCF32969081BA
:10128000992309F489CF8913F9CF8181882309F43F
:1012900083CFF8011486682FAFCF82819381892B89
:1012A00019F484E090E04ACF90E080E047CFAF921D
:1012B000BF92CF92DF92EF92FF920F931F93CF9343
:1012C000DF93DC011296ED91FC91139714968D91AA
:1012D0009C911597E80FF91F14820D911C9111979D
:1012E00014966D917C91159712968D919C91139700
:1012F0009C012C5F3F4FE801EB81FC817B01E20EFA
:10130000F31E3097B9F043814617170679F4590157
:10131000AF014C5F5F4FEA14FB0499F1E501C990FE
:101320005E01EA01D990AE01CD14A9F30190F081DC
:10133000E02DE7CFED01F801408151810E941108B5
:10134000FC01892B21F481E0D80112968C93A881AD
:10135000B98113968D919C911497918380831496F3
:10136000FC93EE9313971B821A82CF01DF91CF91EA
:101370001F910F91FF90EF90DF90CF90BF90AF90B3
:10138000089582818F5F8283F0CFFC017687658725
:101390000895DC01ED91FC9102A0F3A1E02D0995E7
:1013A00091E089270895862F089581E08627089582
:1013B00021E0FC018485843008F020E0822F08952C
:1013C0000895FB0101900020E9F73197AF01461B1A
:1013D000570BDC01ED91FC910280F381E02D099423
:1013E0008F929F92AF92BF92EF92FF920F931F93B3
:1013F000CF93DF93CDB7DEB7A1970FB6F894DEBFDA
:101400000FBECDBF7C01FA01CB0119A2223008F436
:101410002AE08E010F5D1F4F822E912CB12CA12C42
:10142000BF01A50194010E943D27F901CA016A305C
:101430000CF5605DD8016E938D01232B242B252B99
:1014400079F790E080E0109721F0BD01C7010E947C
:10145000E109A1960FB6F894DEBF0FBECDBFDF91B4
:10146000CF911F910F91FF90EF90BF90AF909F9001
:101470008F900895695CDECF8F929F92AF92BF925A
:10148000CF92DF92EF92FF920F931F93CF93DF9350
:101490007C01EB016C0182E0C80ED11C4701E5E044
:1014A0008E0E911C10E000E0F60141916F0150E0BA
:1014B00070E060E02AE0CE010E94F0095C01E88162
:1014C000F9810190F081E02D6EE2CE0109958A0D3F
:1014D0009B1D080F191FC814D90431F7F701458166
:1014E00050E070E060E02AE0CE010E94F009800F39
:1014F000911FDF91CF911F910F91FF90EF90DF909F
:10150000CF90BF90AF909F908F9008954F925F9231
:101510006F927F928F929F92AF92BF92CF92DF9203
:10152000EF92FF926B017C01AC019B010E940F289E
:1015300065EA71E081111AC046015701E894B7F8D5
:101540002FEF3FEF4FE75FE7C501B4010E940F287F
:10155000811126C02FEF3FEF4FE75FE7C501B401D0
:101560000E94D7251816E4F469EA71E088E093E058
:101570000E94E1097C0165E572E088E093E00E9449
:10158000E1098E0D9F1DFF90EF90DF90CF90BF90EF
:10159000AF909F908F907F906F905F904F90089545
:1015A0002FEF3FEF4FE75FE4C701B6010E940A2823
:1015B00018161CF46DEA71E0D9CF2FEF3FEF4FE71B
:1015C0005FECC701B6010E94D72587FDF3CF20E06D
:1015D00030E0A901C701B6010E94D725B12CA12C8A
:1015E00087FF0AC06DE288E093E00E9461025C011F
:1015F000F7FAF094F7F8F0942AE037ED43EA5BE36A
:10160000C701B6010E946F272B013C010E94DB2716
:101610006B017C010E94DC259B01AC01C301B2017E
:101620000E946E272B013C012AE0B701A60188E049
:1016300093E00E94F0097C01EA0CFB1C6EE288E05A
:1016400093E00E946102E80EF91E20E030E040E2E3
:1016500051E4C301B2010E943D262B013C010E94CE
:10166000DB274B01B12CA12C2AE0B501A40188E0B5
:1016700093E00E94F009E80EF91EC501B4010E9432
:10168000DC259B01AC01C301B2010E946E2720E062
:1016900030E040E251E40E943D260E94DB27AB018E
:1016A00070E060E02AE088E093E00E94F009E80E34
:1016B000F91E61CFDF92EF92FF920F931F93CF93AA
:1016C000DF936115710561F460E070E08FEF9D2D8F
:1016D000DF91CF911F910F91FF90EF90DF900895D0
:1016E0008A01EB01DC01FC900B5E1F4F6F2DC801DE
:1016F0000E94BE04009741F3FC01E580009721F3AE
:101700000680F781E02DDE010D900020E9F79D01B4
:10171000215031092C1B3D0BB0E0A0E0309739F08F
:10172000DF010D900020E9F71197AE1BBF0B2A17C0
:101730003B0751F4DE012C0F3D1FA217B30769F0E0
:101740005D9141915417C9F36E2DC8010E94BE04EA
:10175000009709F4B9CFFE2CCFCFBC018F2DDE2C22
:10176000B6CFFC014081518162817381CA014A96E2
:1017700061F0FA01268D25FF08C00E945A0B611501
:10178000710519F0CB010C94C20660E070E0CB014A
:1017900008950F931F93CF93DF93EC018881998174
:1017A000009759F02A813B812617370730F081E0F6
:1017B000DF91CF911F910F9108958B016F5F7F4F44
:1017C0000E943F29009759F0998388831B830A83DD
:1017D0002C813D81232B59F7FC011082E8CF80E05A
:1017E000E7CFEF92FF920F931F93CF93DF93611593
:1017F000710541F480E0DF91CF911F910F91FF902F
:10180000EF90089541155105B1F07B01EC010C8179
:101810001D81040F151FB8010E94C90B882351F3C5
:10182000288139818C819D81B701820F931F0E948D
:10183000172A1D830C8381E0DECFCB01BA010C9403
:101840003F29CF93DF93EC0188819981009711F0B4
:101850000E94B628198218821D821C821B821A825D
:10186000DF91CF910895EF92FF920F931F93CF9343
:10187000DF93CDB7DEB764970FB6F894DEBF0FBE27
:10188000CDBF7C01CB01BA018E010F5F1F4F22E05B
:1018900044E00E944D23FC0101900020E9F73197BC
:1018A000AF01481B590BBC01C7010E94F10B81110C
:1018B00003C0C7010E94210CC70164960FB6F894BB
:1018C000DEBF0FBECDBFDF91CF911F910F91FF9073
:1018D000EF900895CF93DF93EC01FB01019000207E
:1018E000E9F73197AF01461B570B0E94F10B8111AD
:1018F00003C0CE010E94210CCE01DF91CF9108954B
:10190000CF93DF93EC01FB014481558160817181AC
:101910000E94F10B811103C0CE010E94210CCE0167
:10192000DF91CF910895EF92FF920F931F93CF9382
:10193000DF93EC017B018A01BA010E94C90B81117E
:101940000BC0CE010E94210CCE01DF91CF911F91DF
:101950000F91FF90EF9008951D830C83B70188814C
:1019600099810E94172AF0CFFB01DC0111961C928D
:101970001E9213961C921E92129715961C921E92FE
:1019800014978617970749F0608171816115710579
:1019900021F0448155810C94930C0895FC0111822F
:1019A000108213821282158214826115710551F022
:1019B000FB0101900020E9F73197AF01461B570B5F
:1019C0000C94930C0895FC0180819181009711F093
:1019D0000C94B6280895CB010C94B6280C94B62824
:1019E000AF92BF92CF92DF92EF92FF920F931F932D
:1019F000CF93DF9300D000D0CDB7DEB78C016B0161
:101A00007A01809105038333E9F45B016801C40E18
:101A1000D51EC016D106A9F10E94F2028FE00E94E5
:101A2000FD02812F0E94FD02802F0E94FD020F5FA8
:101A30001F4F80E00E94FD02F50181935F010E942B
:101A4000E802E7CF843369F50E94F20219830A8322
:101A50008F2D8F778B83EC8264E070E0CE0101964E
:101A60000E94CE02A70170E060E0C6010E94052A34
:101A7000E114F10421F0B701C6010E94CE020E94D8
:101A8000E802C7010F900F900F900F90DF91CF9158
:101A90001F910F91FF90EF90DF90CF90BF90AF908C
:101AA00008950E94F2020F3F110509F030F41982E7
:101AB0000A831B8263E070E0D1CF17FD0BC019824F
:101AC0000A8333E0169507953A95E1F7007E0860A2
:101AD0000B83F0CFC80126E0969587952A95E1F70C
:101AE000807E19830A830115104C18F480618B8362
:101AF000E1CF8861FCCFCF93DF931F92CDB7DEB7E4
:101B00002091060330E0322F2227260F371F90E066
:101B1000982F882741E050E0BE016F5F7F4F820F12
:101B2000931F0E94F00C89810F90DF91CF9108954F
:101B3000CF93C82F462F61E070E00E94100461E04F
:101B400070E08C2F0E947B0D8111F9CFCF91089509
:101B5000CF93C82F80E591E00E94370168E070E0E4
:101B60008C2FCF910C94980DCF93C82F80E591E0E6
:101B70000E94370160E170E08C2FCF910C94980D9A
:101B8000CF93DF93EC01888D843020F40E94B40D54
:101B900084E0888FDF91CF910895CF93C82F80E59F
:101BA00091E00E94370163E070E08C2FCF910C949C
:101BB0007B0DCF93DF93EC018C858430D0F40E94B1
:101BC000CD0D843189F0882379F0883169F021E0E6
:101BD0008C3159F4E881F9810084F185E02DCE0142
:101BE000099521E0892B09F420E0822FDF91CF9124
:101BF000089580E0FBCFCF92DF92EF92FF92CF93D8
:101C0000DF93EC018C85843068F40E94A80D0E945B
:101C1000B5016B017C018C850E94CD0D811109C03D
:101C200084E08C87DF91CF91FF90EF90DF90CF9091
:101C3000089561E070E080E090E00E9483010E94DE
:101C4000B501AB01BC014C195D096E097F098D8599
:101C50009E85B0E0A0E0481759076A077B07D8F2D5
:101C60008C850E94B40DDCCFCF93FC01C08D80E544
:101C700091E00E94370160E270E08C2F0E94980D85
:101C800062E070E08C2F0E947B0D84FD16C062E044
:101C900070E08C2F0E947B0D83FF0AC048E162E058
:101CA00070E08C2F0E94100480E090E0CF910895A6
:101CB00080E591E00E943701E3CF40E162E070E00F
:101CC0008C2F0E94100481E0F0CFCF93DF931F92FE
:101CD000CDB7DEB741E050E0BE016F5F7F4F90E0CF
:101CE00080E00E94F00C89810F90DF91CF910895E0
:101CF000CF93DF93C4E1D0E00E94650E882361F0AA
:101D000061E070E080E090E00E9483012197A1F7FC
:101D100080E0DF91CF91089581E0FBCFCF92DF92F9
:101D2000EF92FF920F931F93CF93DF93CDB7DEB760
:101D3000C454D1090FB6F894DEBF0FBECDBFFC016D
:101D400082819381A481B58123968CAF9DAFAEAF84
:101D5000BFAF239721E023962FAF239723964CAD57
:101D60005DAD6EAD7FAD23974BAB5CAB6DAB7EAB2A
:101D700089AF9AAFABAFBCAF8DA79EA7AFA7B8ABEB
:101D800028AB4DA55EA56FA578A94FA358A769A755
:101D90007AA72EAB4BA95CA96DA97EA949A35AA32A
:101DA0006BA37CA38B8F9C8FAD8FBE8F42E951E0DC
:101DB0005C8B4B8B3FEF3D8B3E8B3F8B188E5E8752
:101DC0004D872AA7CFA0D8A4E9A4FAA4CF86D88AA1
:101DD000E98AFA8A2CA309A11AA12BA13CA109879F
:101DE0001A872B873C875A8349838B839C83AD83D7
:101DF000BE83809107038111CBC060E372E080E075
:101E000090E00E948301DFB6F89404EC11E048ED05
:101E1000E42E41E0F42E80910403811142C0F801C8
:101E20008491F7019491E82FF0E0EE0FFF1FE05549
:101E3000FE4FA591B4918C91982321F5ECE9F1E046
:101E40008491F7019491F80124912223D9F08823F9
:101E500059F0833009F4DDC008F0D0C0813009F4B6
:101E6000DEC0823009F4DFC0E22FF0E0EE0FFF1F8A
:101E7000EA55FE4FA591B4918FB7F8942C91922B0F
:101E80009C938FBF8AE00E943A018CB580618CBD23
:101E90008CB580648CBD8DE00E943A018BE00E947D
:101EA0003A01809104038F5F80930403DFBEF80141
:101EB0000491E02FF0E0EE0FFF1FEA55FE4F8591F1
:101EC00094919093030380930203F701E490E092CE
:101ED00001038AE00E943A010E94E80280E591E055
:101EE0000E94370184E38093050380E80E94B403D5
:101EF0000E94780E882309F4A3C088E00E94B403EE
:101F00000E94650E883009F09BC080E10E94B403F6
:101F10000E94650E803109F093C080E00E94B403F6
:101F20000E94650E182F81118BC041E050E0BE0168
:101F30006D5B7F4F8FE190E00E94F00C24968FAD97
:101F40002497833009F07CC080E48093060342E04C
:101F50006EE170E0812F0E94100442E06FE170E0BA
:101F6000812F0E9410041F5F143089F740E06EE15A
:101F700070E0812F0E94100440E06FE170E0812F3B
:101F80000E9410041F5F183089F781E080930703D7
:101F900080E591E00E94370146E050E064E071E0A6
:101FA00089E090E00E94040344E050E0BE016D5FD0
:101FB0007F4F8FE090E00E94040344E050E0BE01B8
:101FC000615F7F4F81E090E00E94040344E050E0B5
:101FD000BE016B5E7F4F85E090E00E94040381E0CC
:101FE0008C8789859A85AB85BC858093C503909342
:101FF000C603A093C703B093C80391C08730B1F064
:102000008830D1F0843009F02FCF809180008F7D0F
:1020100003C0809180008F778093800025CF84B5A6
:102020008F7784BD21CF84B58F7DFBCF8091B000A9
:102030008F778093B00018CF8091B0008F7DF9CF5B
:1020400087E38093050380E80E94B4030E94780E22
:10205000882339F188E00E94B4030E94650E88301D
:1020600001F580E10E94B4030E94650E182F8031B3
:10207000C1F480E00E94B4030E94650E811111C07A
:1020800041E050E0BE016D5B7F4F89E390E00E942C
:10209000F00C24968FAD2497843019F41093060326
:1020A00074CF83E38093050380E80E94B4030E9409
:1020B000780E882391F180E10E94B4030E94650E9E
:1020C000803159F582E10E94B4030E94650E82318D
:1020D00021F580E00E94B4030E94650E81111DC0AD
:1020E00084E08093060315E525961FAF259741E010
:1020F00050E0BE016C5B7F4F8BE190E00E940403D7
:1021000024961FAF249741E050E0BE016D5B7F4FE6
:102110008AE190E00E94040338CF10920503CC5B63
:10212000DF4F0FB6F894DEBF0FBECDBFDF91CF916A
:102130001F910F91FF90EF90DF90CF9008951F9324
:10214000CF93DF931F92CDB7DEB7182F80E591E0D4
:102150000E943701812F0E94C70327E0129FF001E0
:102160001124EB51FD4F22813381377041E050E063
:10217000BE016F5F7F4F820F931F0E94F00C898119
:102180000F90DF91CF911F910895FC01808D8430D5
:1021900040F4218D328D232B21F00E949F1090E07E
:1021A00008958FEF9FEF0895CF93DF93FC0124856F
:1021B000243028F08FEF9FEFDF91CF910895EC014D
:1021C0000190F081E02D0084F185E02D0995892BA7
:1021D00089F38C850E949F1090E0EECFDA01E091A8
:1021E0000603F0E0FE2FEE27E60FF71F90E0982F92
:1021F0008827A901BD018E0F9F1F0C94F00C8F92B0
:102200009F92AF92BF92CF92DF92EF92FF921F9375
:10221000CF93DF93CDB7DEB72C970FB6F894DEBF20
:102220000FBECDBF2091050314E0222339F16B01CD
:102230007C0180E591E00E9437015E0127E0A20E5B
:10224000B11C450110E063E070E0812F0E947B0D1E
:10225000F40181934F01882349F11F5F143099F7EE
:1022600010E0F50181915F018D31D9F08831C9F01D
:102270008A518230B0F01F5F143099F7812F2C966D
:102280000FB6F894DEBF0FBECDBFDF91CF911F9187
:10229000FF90EF90DF90CF90BF90AF909F908F9086
:1022A000089560E170E0812F0E94980DA12EB12C5D
:1022B00083EE93E00197F1F742E870E060E0812F50
:1022C0000E9410044FEF62E070E0812F0E94100422
:1022D000B601C114D10491F48091020190910301DF
:1022E00001968115F0EC9F0708F45CC09093030100
:1022F000809302016091020170910301812F0E947D
:10230000FB0386E0E0E1F1E0DE01119601900D9221
:102310008A95E1F7F70183818F778C8384818D83A0
:1023200085818E83A7014E5F5F4F24E030E06CE033
:1023300070E0812F0E94D503B601812F0E94E60331
:1023400026E030E0AE014F5F5F4F66E070E0812F26
:102350000E94D50361E070E0812F0E94980D27E074
:102360002A9DC0012B9D900D11249C012B513D4FA6
:102370007901F9011182108222E030E0AE01455F5F
:102380005F4F68E270E0812F0E94EE108B859C8584
:10239000982789279827F7019383828316821582CD
:1023A00014826CCF80E090ECA1CFCF92DF92EF92BD
:1023B000FF920F931F93CF93DF9300D000D000D0F4
:1023C000CDB7DEB78C016B017A01FC01808D8430C2
:1023D00010F40E94B40D82E991E09A838983F6019A
:1023E00082819381A481B5818B839C83AD83BE83DD
:1023F000B701CE0101960E94FF10F801808F843052
:10240000A0F4F586E486128E118E81E026960FB632
:10241000F894DEBF0FBECDBFDF91CF911F910F911A
:10242000FF90EF90DF90CF90089580E0EFCFAF92D4
:10243000BF92CF92DF92EF92FF920F931F93CF93B1
:10244000DF9300D000D000D0CDB7DEB7082F6B01EE
:1024500080E591E00E9437019E012F5F3F4F790197
:10246000590110E063E070E0812F0E947B0DF501BF
:1024700081935F01882341F11F5F143099F710E0C9
:10248000F70181917F018D31D1F08831C1F08A51FE
:102490008230A8F01F5F143099F7812F26960FB66F
:1024A000F894DEBF0FBECDBFDF91CF911F910F918A
:1024B000FF90EF90DF90CF90BF90AF90089560E1D4
:1024C00070E0812F0E94980DE12EF12C83EE93E0B5
:1024D0000197F1F7402F70E060E0812F0E94100417
:1024E0004FEF62E070E0812F0E941004B601CD280A
:1024F00089F4809102019091030101968115F0EC1D
:102500009F0798F19093030180930201609102016B
:1025100070910301812F0E94FB0361E070E0812F25
:102520000E94980D27E02E9DC0012F9D900D112433
:102530009C012B513D4F7901F9011182108222E05B
:1025400030E0AE014B5F5F4F68E270E0812F0E9488
:10255000EE108D819E81982789279827F701938314
:10256000828316821582148298CF80E090ECCACFC5
:10257000CF92DF92EF92FF921F93CF93DF93EC0104
:102580007B016A018C85843048F40E94CD0D88233C
:1025900019F08C850E94A80D84E08C87F701828158
:1025A0009381A481B5810097A105B10551F490E014
:1025B00080E0DF91CF911F91FF90EF90DF90CF905F
:1025C00008958F3F9F4FAF4FBF4F89F38091050311
:1025D000811103C084E08C87EACF70E060E081E283
:1025E0000E941712182F8C87843008F780E591E03D
:1025F0000E943701A7014E5F5F4F24E030E06CE09E
:1026000070E0812F0E94D503B601812F0E94E6035E
:1026100064E070E0812F0E94980D0E94B5016B016B
:102620007C018C850E94CD0D873109F18C31F9F048
:10263000882309F4BCCF0E94B501AB01BC014C1941
:102640005D096E097F098D859E85B0E0A0E0841745
:102650009507A607B70738F061E070E080E090E0EA
:102660000E948301DECF8C850E94B40DB3CF81E040
:1026700090E09FCF0F931F93CF93DF93EC018B01DB
:10268000888D843010F40E94B40D8091050381116F
:1026900007C094E0988FDF91CF911F910F9108951B
:1026A000B80182E00E941712888F843030F41D87B1
:1026B0000C871A8E198E81E0EECF80E0ECCF7F92EE
:1026C0008F929F92AF92BF92CF92DF92EF92FF9242
:1026D0000F931F93CF93DF9300D0CDB7DEB7782E43
:1026E0008B014A01590122E030E0AE014F5F5F4F9C
:1026F00064E270E00E94EE10E980FA80FE24EF248C
:10270000FE24E00EF11E9701377040910503072D5E
:1027100010E0433309F042C0085F1F4F102F00271D
:10272000110F110F110FC901800F911F4733C9F10C
:10273000A9014A0D5B1D4130584098F160E078E0F6
:102740006B01C21AD30AA601B4010E940403A501B9
:102750004C195D09B4016C0D7D1DC8010E94040374
:10276000EA0CFB1CF982EA8222E030E0AE014F5F06
:102770005F4F64E270E0872D0E94D5030F900F90A9
:10278000DF91CF911F910F91FF90EF90DF90CF904D
:10279000BF90AF909F908F907F900895005F1F4FE4
:1027A000BDCFA501B401DACFEF92FF921F93CF9373
:1027B000DF9300D0CDB7DEB7182F22E030E0AE01B6
:1027C0004F5F5F4F60E270E00E94EE10E980FA8098
:1027D000FE24EF24FE2422E030E0AE014F5F5F4F85
:1027E00060E270E0812F0E94EE1089819A81982723
:1027F00089279827E816F90689F487E0189FF001E1
:102800001124EB51FD4FF582E482C7010F900F9028
:10281000DF91CF911F91FF90EF9008957C01DBCF66
:102820001F93CF93DF93182F80E591E00E9437012B
:10283000812F0E94D413EC0163E070E0812F0E948D
:102840007B0D873121F08C3111F0D0E0C0E0CE015A
:10285000DF91CF911F910895CF93DF93EC018C8589
:10286000843060F40E94CD0D873111F08C3131F449
:102870008C850E9410148115984088F3DF91CF91C8
:102880000895FC018485843010F40C94101490E0B9
:1028900080E008959F92AF92BF92CF92DF92EF9225
:1028A000FF920F931F93CF93DF938C015B01942EC4
:1028B000E52EFC01C688D788F08C80E591E00E9467
:1028C00037018F2D0E94D413C92DDE2D8C179D0743
:1028D00008F4EC019E01A501B6018F2D0E945F1343
:1028E000F801868997898C0F9D1F978B868BCE0167
:1028F000DF91CF911F910F91FF90EF90DF90CF90DC
:10290000BF90AF909F9008958F929F92AF92BF9289
:10291000CF92DF92EF92FF920F931F93CF936C01B0
:102920005B018A01FC01C485C430F0F57A014130B5
:10293000584018F0E12C88E0F82E80E591E00E94E4
:1029400037018C2F0E94D4134C0163E070E08C2F70
:102950000E947B0D873111F08C3149F58E149F0454
:1029600060F380E591E00E9437019701A50170E0D6
:1029700060E08C2F0E945F1360E270E08C2F0E9459
:10298000980D62E070E08C2F0E947B0D84FD17C0D3
:1029900063E070E08C2F0E947B0D81110BC081E001
:1029A00090E0F6019383828310E000E010C0F12CE8
:1029B000E12CD7CF80E591E00E943701E2CF40E1E2
:1029C00062E070E08C2F0E941004EF2841F3C801F0
:1029D000CF911F910F91FF90EF90DF90CF90BF901C
:1029E000AF909F908F900895FF920F931F93CF9376
:1029F000DF9300D0CDB7DEB7F82E22E030E0AE0195
:102A00004F5F5F4F66E270E00E94EE1009811A810D
:102A100010270127102722E030E0AE014F5F5F4F03
:102A200066E270E08F2D0E94EE1089819A819827CE
:102A3000892798270817190749F4C8010F900F90A4
:102A4000DF91CF911F910F91FF9008958C01E3CFFB
:102A50001F93CF93DF93182F87E0189FE001112475
:102A6000CB51DD4F88819981009761F480E591E039
:102A70000E943701812F0E94F4142E81821B91093C
:102A800099838883DF91CF911F910895FC018485FC
:102A9000843010F40C94281590E080E008954F9253
:102AA0005F927F928F929F92AF92BF92CF92DF926E
:102AB000EF92FF920F931F93CF93DF9300D0CDB788
:102AC000DEB7782E6B014A01A82EB12C27E0829F39
:102AD000C0011124FC01EB51FD4F7F0100811181E8
:102AE00080E591E00E9437010815190554F4872DFF
:102AF0000E94F414F70126818C01021B1109118335
:102B000000830115110529F563E070E0872D0E940F
:102B10007B0D843159F0882349F001E010E08C31BD
:102B200011F410E000E0119501951109C8010F9012
:102B30000F90DF91CF911F910F91FF90EF90DF9059
:102B4000CF90BF90AF909F908F907F905F904F906D
:102B50000895801691060CF4840187E08A9DF001A7
:102B60008B9DF00D1124EB51FD4FE280F380C114D9
:102B7000D10451F12701F7E05F22872D0E94C7039E
:102B8000840D951D20910503273309F453C0980146
:102B9000240D351D2130384008F44CC020E038E0C9
:102BA000490184189508A401B6010E94F00C260181
:102BB000480C591C6801C818D908872D0E94C70302
:102BC000A601B2010E94F00CE00EF11E87E08A9D82
:102BD000F0018B9DF00D1124EB51FD4FF382E28249
:102BE00020813181201B310B318320838681800F2E
:102BF000912F911D8A3F910510F4232BF1F487E06A
:102C00008A9DF0018B9DF00D1124EB51FD4F168232
:102C1000F982EA8222E030E0AE014F5F5F4F68E266
:102C200070E0872D0E94D50360E470E0872D0E943C
:102C3000980D7CCFA801B601C5CF868377CFCF93FF
:102C4000DF93FC01218D328D2115310529F48FEFA1
:102C50009FEFDF91CF910895EC01808D42175307CC
:102C600008F0A9010E944F151816190684F7298D3E
:102C70003A8D281B390B3A8F298FEBCF0F931F9377
:102C8000CF93DF931F92CDB7DEB7FC01218D328D3C
:102C9000232B41F48FEF9FEF0F90DF91CF911F9186
:102CA0000F9108958C0141E050E0BE016F5F7F4FAE
:102CB000FC01808D0E944F15181619065CF7F8016B
:102CC000818D928D0197928F818F898190E0E4CFE1
:102CD000CF93DF931F92CDB7DEB741E050E0BE0146
:102CE0006F5F7F4FFC0184850E944F1518161906EF
:102CF00034F4898190E00F90DF91CF9108958FEFA8
:102D00009FEFF9CFFC018485843010F40C944F15AB
:102D100090E080E008950F931F93CF93DF9300D04E
:102D2000CDB7DEB7FC0124852430E0F48C0180E5CA
:102D300091E00E94370122E030E0AE014F5F5F4F2B
:102D400060E170E0F80184850E94EE1089819A812B
:102D50009827892798270F900F90DF91CF911F9187
:102D60000F91089590E080E0F6CF0F931F93CF93DB
:102D7000DF9300D0CDB7DEB7FC0124852430E0F42A
:102D80008C0180E591E00E94370122E030E0AE0145
:102D90004F5F5F4F64E070E0F80184850E94EE10A1
:102DA00089819A819827892798270F900F90DF9122
:102DB000CF911F910F91089590E080E0F6CF0F938F
:102DC0001F93CF93DF93CDB7DEB728970FB6F89454
:102DD000DEBF0FBECDBF8C01D80159964D915C91DD
:102DE0005A974115510551F0ED91FC91048CF58DE8
:102DF000E02D70E060E0C8010995EECFF801808D0C
:102E00000E942815892BB1F148E050E0BE016F5FA8
:102E10007F4FD80158968C910E944F1518161906AD
:102E2000F4F4D801509684E0FE01319601900D92A1
:102E30008A95E1F78D8190E0982F88272E81820F67
:102E4000911DF801958B848B8F81282F30E0322FD4
:102E500022278885820F932F911D928F818F28962C
:102E60000FB6F894DEBF0FBECDBFDF91CF911F919B
:102E70000F91089590E080E0F2CF4F925F926F92B1
:102E80007F928F929F92AF92BF92CF92DF92EF92FA
:102E9000FF920F931F93CF93DF93CDB7DEB7639766
:102EA0000FB6F894DEBF0FBECDBF7C016B013A01B7
:102EB000FB0120E090E080E06AE03191332309F4E7
:102EC00061C040ED430F4A3008F04DC0689FA0013B
:102ED000699F500D1124CA01C097830F911D37FDC2
:102EE0009A958F3F910549F340F3F7014281538151
:102EF000648175818091D1039091D203A091D30315
:102F0000B091D403481759076A077B0709F40DC22B
:102F10008701085F1F4F0E94B5016F7077277C5FA4
:102F2000C8010E943A13813009F004C282E991E09D
:102F30009A838983F70182819381A481B5818B83F0
:102F40009C83AD83BE8345E350E0BE016F5F7F4F3E
:102F5000C8010E946504892BA9F5D12CC12CC80198
:102F60000E94C00D17C03E3209F0BFCF233009F4D4
:102F7000BCCFD301A20FB11D12968C932F5F90E0AE
:102F800080E09BCF233009F0B0CFF3018583CC24C0
:102F9000C394D12CC60163960FB6F894DEBF0FBE62
:102FA000CDBFDF91CF911F910F91FF90EF90DF90F8
:102FB000CF90BF90AF909F908F907F906F905F90D9
:102FC0004F9008950E94B501F7017783668342E030
:102FD00050E0B7016A5F7F4FC8010E944A1481E048
:102FE00090E09A83898342E050E0BE016F5F7F4F9B
:102FF000C8010E944A1480E091E09A83898342E0EC
:1030000050E0BE016F5F7F4FC8010E944A141A82D0
:10301000198242E050E0BE016F5F7F4FC8010E94FD
:103020004A1442E050E0BE016F5F7F4FC8010E942A
:103030004A1442E050E0BE016F5F7F4FC8010E941A
:103040004A145601F6018081882301F16501F601D9
:1030500081912F01882311F08E32B1F446018A1834
:103060009B081814190474F48D8641E050E0BE01E9
:10307000635F7F4FC8010E944A14A401B501C801D3
:103080000E944A145201DECF6201E1CF1D8641E069
:1030900050E0BE01635F7F4FC8010E944A14C12CFB
:1030A000DD24D394DA82C98242E050E0BE016F5F32
:1030B0007F4FC8010E944A14DA82C98242E050E080
:1030C000BE016F5F7F4FC8010E944A14C8010E9471
:1030D000340E892B09F441CFF3E0AF2EB12C23013C
:1030E00022E0420E511CD4C0F70142815381648119
:1030F0007581808D918DA28DB38D481759076A0710
:103100007B0709F008C1848D958DC59709F003C12F
:1031100081A192A15DEFC52EDD24DA940C970CF409
:10312000ADC04CE050E0BE016F5F7F4FC8010E9410
:103130001F168B819C819827892798279A8B898BCA
:10314000F7014681578129813A814217530709F0D7
:10315000E7C097FFE5C08F7092703BEFC32EDD2470
:10316000DA94892B09F08AC06F80788476246724EA
:1031700076242AEFC22EDD24DA946114710409F456
:103180007DC0D12CC12C8D819E81982789279827BD
:10319000C816D906F8F441E050E0BE01635F7F4FE6
:1031A000C8010E941F164D85442331F050E070E0A5
:1031B00060E0C8010E941F168D858111ECCF44E0AC
:1031C00050E070E060E0C8010E941F16FFEFCF1AC8
:1031D000DF0AD9CF912C812C41E050E0BE016D5E19
:1031E0007F4FC8010E941F164B89842F807C09F0F5
:1031F0006CC0442331F050E070E060E0C8010E94F0
:103200001F168B898111E8CF42E050E0BE01615F5B
:103210007F4FC8010E941F1642E050E0BE01635F6D
:103220007F4FC8010E941F1644E050E070E060E04C
:10323000C8010E941F1642E050E0BE016F5E7F4F42
:10324000C8010E941F168F85988949895A8981155E
:10325000914009F043C0CD84DE84DC24CD24DC24FD
:1032600081E0C816D104D1F54115544009F04AC097
:1032700044E050E0B201C8010E941F1621E0A21AEA
:10328000B10809F46CCEFFEFCF16DF0609F067CE68
:103290000E94B5013B014C01C8010E94DF161816BF
:1032A00019060CF421CF0E94B50166197709880927
:1032B0009909693873418105910548F562E370E029
:1032C00080E090E00E948301E7CF41E050E070E0B1
:1032D00060E0C8010E941F161B8A93CF5427452720
:1032E000542770E060E0C8010E941F16FFEF8F1A9C
:1032F0009F0A6814790409F06FCF96EFC92EDD2478
:10330000DA94BCCFE7EFCE2EDD24DA94B7CFCC240D
:10331000CA94DC2CB3CF6EEFC62EDD24DA94AECF88
:103320004CEFC42EDD24DA94A9CF8EEFC82EDD2415
:10333000DA9430CED12CC12C2DCECF92DF92EF92E9
:10334000FF920F931F93CF93DF93CDB7DEB7AF9765
:103350000FB6F894DEBF0FBECDBF7C016A0102E953
:1033600011E01A8309831C861B8688EE93E0A0E097
:10337000B0E08D879E87AF87B88B84E291E09A8713
:103380008987188F0F8B198E1A8E1B8E1C8E84E0E6
:1033900089A31BA70AA71CA61DA61EA61FA680916F
:1033A000C5039091C603A091C703B091C8038EA333
:1033B0009FA3A8A7B9A78B839C83AD83BE831886E0
:1033C0001F82AE01465D5F4FCE0101960E943D1700
:1033D00081309105B1F4D701ED91FC910488F58914
:1033E000E02D1DA30CA38CA59DA5AEA5BFA58EA306
:1033F0009FA3A8A7B9A7A601BE016C5D7F4FC70117
:103400000995AF960FB6F894DEBF0FBECDBFDF9122
:10341000CF911F910F91FF90EF90DF90CF90089583
:10342000CF92DF92EF92FF920F931F93CF93DF9390
:10343000CDB7DEB7AF970FB6F894DEBF0FBECDBFE6
:103440008C016B017A0182E991E09A8389831B8266
:103450001C821D821E821C861B8648EE53E060E0A3
:1034600070E04D875E876F87788B24E231E03A8782
:103470002987988F8F8B198E1A8E1B8E1C8E24E0B5
:1034800029A39BA78AA71CA61DA61EA61FA6D80116
:103490001C968C91843060F40E94CD0D882321F01D
:1034A000F80184850E94A80D84E0D8011C968C93B5
:1034B0008091C5039091C603A091C703B091C80342
:1034C0008EA39FA3A8A7B9A78B839C83AD83BE833C
:1034D00018861F82AE01465D5F4FB601CE01019690
:1034E0000E943D170097C1F0D801ED91FC91068430
:1034F000F785E02D82E991E09DA38CA38CA59DA585
:10350000AEA5BFA58EA39FA3A8A7B9A7A701BE017B
:103510006C5D7F4FC8010995AF960FB6F894DEBF7A
:103520000FBECDBFDF91CF911F910F91FF90EF9014
:10353000DF90CF900895EF92FF920F931F93CF9358
:10354000DF9300D000D0CDB7DEB78C017B01FB014B
:1035500084858430A8F082E991E0F801918380832A
:103560001282138214821582C8010F900F900F905F
:103570000F90DF91CF911F910F91FF90EF900895E1
:1035800080E591E00E94370124E030E0AE014F5F1A
:103590005F4F6CE070E0F70184850E94EE1082E9D5
:1035A00091E0F8019183808389819A81AB81BC810C
:1035B00082839383A483B583D7CF8F929F92AF9258
:1035C000BF92CF92DF92EF92FF920F931F93CF9310
:1035D000DF936C018B01DB015996FC90BFEFFB166A
:1035E00021F16F2DC80145960E94BE04EC018D812A
:1035F000F801818F209709F496C01C828FEF8D838C
:103600001F821E82D60111966C916F3F09F49FC0F4
:10361000C80145960E94BE04FC01F582D6011196B0
:10362000FC92BE018F2D9D8084C05B01F5E0AF0E42
:10363000B11CDB01ED90FC90119757968C9188237B
:1036400049F0C5010E940807C62FD72F209711F017
:10365000F82ED8CFF801C789908DC91325C0C03185
:1036600009F461C0CC0F65897689D701ED91FC9191
:10367000B4E0CB9FA0011124A616B70609F04BC0F9
:103680000190F081E02DBA01C7010995009709F476
:103690004AC020E1F501DC0101900D922A95E1F785
:1036A000F801968B858BC08FD8015596CD91DC9112
:1036B000569757968C91579721E0280F57962C9341
:1036C000B4E08B9FC0011124C80FD91F90E1892E4F
:1036D000203111F48FE0882EE8E08E9EB001112495
:1036E000D701ED91FC910190F081E02DC701099582
:1036F0009B838A83892B09F4812C88821982CD2BA4
:1037000091F0C5010E940807C62FD72FF82E2097E9
:1037100009F078CF08C00480F581E02DC701099534
:10372000009709F0BDCF81E0F801828360E070E08E
:103730008FEF992DDF91CF911F910F91FF90EF9017
:10374000DF90CF90BF90AF909F908F900895F6013B
:10375000F082F18266CF8F929F92AF92BF92CF920A
:10376000DF92EF92FF920F931F93CF93DF93EC01C1
:103770008B01D42E0E9439057C01892B09F047C0AA
:10378000CE010E94EB04863609F452C124F587323B
:1037900029F08B3561F1823209F053C11D821C8200
:1037A0008A819B81892B31F4888199810E941C0137
:1037B0009B838A83CE010E9478087C01892B39F58E
:1037C000CE010E945709F8012481207825602483C6
:1037D000918380831CC0843709F412C18B3709F4AC
:1037E0005BC08E3609F02DC16CEB71E012C1F8019F
:1037F00084818078806484830115110519F08FEF2E
:1038000080838183D11011C025E0E22EF12CC70105
:10381000DF91CF911F910F91FF90EF90DF90CF90AC
:10382000BF90AF909F908F9008951C86CE010E940C
:103830003905009709F085C06DE5CE010E940505A8
:103840008111E5CFDA946D857E85C8010E94DD1A6D
:103850006115710521F484E0E82EF12CD8CF4D2DAF
:10386000CE010E94AB1B009709F06BC0CE010E94F5
:103870003905009709F065C06DE5CE010E94050588
:103880008111C5CF6CE2CE010E9405058111DBCF0D
:1038900093E0E92EF12CBBCFF8018481807880621F
:1038A00084830115110519F08FEF80838183DD205A
:1038B00009F4AACF1C86CE010E943905009709F0B1
:1038C00040C06DE7CE010E9405058111A0CFBB2449
:1038D000BA94BD0C1D821C828A819B81892B31F494
:1038E000888199810E941C019B838A83CE010E945A
:1038F000EB048732E1F08232D1F0CE010E94EB047A
:10390000D82E0E94D904882319F21C866D2DCE0171
:103910000E943F08CE010E94EB04D82E0E94D904D9
:103920008111F3CF8A819B81892B31F494CFCE0111
:103930000E947808009729F4CE010E94390500976B
:1039400011F07C0164CF6AE3CE010E940505882353
:1039500009F49ECFEA81FB818C819D81E80FF91FDC
:1039600014824D855E856A817B816C5F7F4FC801C3
:103970000E945A0BCB016B01672BC9F5CE010E9447
:1039800057094C016D857E85C8010E94DD1A6B01C7
:103990006115710509F45FCFFB0184818068848320
:1039A000F4E08F0E911CF601978286824B2DB601B2
:1039B000CE010E94AB1B009721F6CE010E94390573
:1039C000009709F0BECF6DE7CE010E940505811179
:1039D0001ECF6CE2CE010E940505882309F458CF62
:1039E000CE010E943905009709F474CFAACF6D85E6
:1039F0007E850E94B407F601848180788483D6CFC7
:103A0000F801848180788660848381E0808361EB23
:103A100071E0CE01DF91CF911F910F91FF90EF9058
:103A2000DF90CF90BF90AF909F908F900C94160531
:103A3000F8018481807886608483108266EB71E06F
:103A4000E8CFCE010E94EB045E01FFE0AF0EB11C97
:103A5000D12C9A2CCB2C803374F08A3374F49FE3EE
:103A6000D91699F01C86D394F50181935F01CE019C
:103A70000E94EB04F0CF8B3291F393ED980F9230CC
:103A800070F3982F9F7D953451F3CD0DD11D1F8676
:103A9000B801892D9C2D0E945B058111B8CEF8CE0E
:103AA000CB010C941A281F920F920FB60F9211247B
:103AB0002F933F938F939F93AF93BF938091DD029A
:103AC0009091DE02A091DF02B091E0023091DC0221
:103AD00023E0230F2D3758F50196A11DB11D20932A
:103AE000DC028093DD029093DE02A093DF02B093AC
:103AF000E0028091E1029091E202A091E302B09194
:103B0000E4020196A11DB11D8093E1029093E202AF
:103B1000A093E302B093E402BF91AF919F918F9184
:103B20003F912F910F900FBE0F901F90189526E890
:103B3000230F0296A11DB11DD2CF1F920F920FB677
:103B40000F9211242F933F934F935F936F937F9323
:103B50008F939F93AF93BF93EF93FF9388E093E08E
:103B60000E943F02FF91EF91BF91AF919F918F9182
:103B70007F916F915F914F913F912F910F900FBE69
:103B80000F901F9018951F920F920FB60F9211244D
:103B90002F938F939F93EF93FF93E0911803F091EE
:103BA00019038081E0911E03F0911F0382FD1BC069
:103BB0009081809121038F5F8F7320912203821760
:103BC00041F0E0912103F0E0E85FFC4F958F809396
:103BD0002103FF91EF919F918F912F910F900FBE35
:103BE0000F901F9018958081F4CFE8E0F3E01382E6
:103BF000128248EE53E060E070E0448355836683B0
:103C000077838EE491E09183808385EC90E09587C3
:103C1000848784EC90E09787868780EC90E0918B96
:103C2000808B81EC90E0938B828B82EC90E0958B83
:103C3000848B86EC90E0978B868B118E128E138E80
:103C4000148EE5EAF3E082E991E0918380831282A9
:103C5000138214821582EBEAF3E09183808312824F
:103C6000138214821582E1EBF3E091838083128248
:103C7000138214821582E7EBF3E091838083128232
:103C8000138214821582EDEBF3E09183808312821C
:103C9000138214821582E9ECF3E09183808312820F
:103CA000138214821582E3ECF3E091838083128205
:103CB000138214821582EFECF3E0918380831282E9
:103CC000138214821582E5EDF3E0918380831282E2
:103CD000138214821582E0EFF3E0918380831282D5
:103CE000138214821582EAEEF3E09183808380ECE4
:103CF000828388EA8383148281E98583EBEDF3E094
:103D000013821282448355836683778380E691E031
:103D10009183808384E0848788EE93E0968785870B
:103D20000895CF93DF93CDB7DEB7CC58D1090FB646
:103D3000F894DEBF0FBECDBF789484B5826084BD99
:103D400084B5816084BD85B5826085BD85B581609F
:103D500085BD80916E00816080936E00109281001D
:103D600080918100826080938100809181008160D8
:103D70008093810080918000816080938000809199
:103D8000B10084608093B1008091B0008160809325
:103D9000B00080917A00846080937A0080917A00EC
:103DA000826080937A0080917A00816080937A00AB
:103DB00080917A00806880937A001092C100E0912F
:103DC0001803F091190382E08083E0911403F091CD
:103DD00015031082E0911603F09117038FEC808396
:103DE00010922003E0911C03F0911D0386E0808374
:103DF000E0911A03F0911B03808180618083E09140
:103E00001A03F0911B03808188608083E0911A037C
:103E1000F0911B03808180688083E0911A03F09108
:103E20001B0380818F7D808382E991E09A8389835F
:103E30008091EC039091ED03A091EE03B091EF031C
:103E40008B839C83AD83BE83CE0101961C010E94AF
:103E50008E0E6AE070E080E090E00E9483018E01A7
:103E6000005B1F4FF8013596C957DF4FF983E88390
:103E7000C758D040C8014A96C557DF4F99838883F9
:103E8000CB58D0400E94B50128EE33E040E050E02E
:103E90000E943D273093DB022093DA028091D80202
:103EA0009091D902281B390B121613060CF0DBC3B4
:103EB00085E480937C0080917A00806480937A000E
:103EC00080917A0086FDFCCF609178007091790036
:103ED000072E000C880B990B0E94DE252AE038E2A1
:103EE00040EA5BE30E943D2620E030E048EC52E4EB
:103EF0000E943D266093CC027093CD028093CE0247
:103F00009093CF0248E757E161EC71E08BED93E0CD
:103F10000E94101A892B09F4B1C2C090C802D09037
:103F2000C902E090CA02F090CB028090C402909047
:103F3000C502A090C602B090C7024090CC0250903B
:103F4000CD026090CE027090CF02E091DA02F09143
:103F5000DB02C757DF4FF983E883C958D0406FECC5
:103F600071E0C8010E94CE0CB801CE0181599F4F6B
:103F70000E94B40C4AE0B101C757DF4F8881998194
:103F8000C958D0400E946B23F10101900020E9F74D
:103F90003197AF0142195309B101CE0181599F4FA9
:103FA0000E94F10B811105C0CE0181599F4F0E94E3
:103FB000210C62ED71E0CE0181599F4F0E946A0C85
:103FC000B301A2010E94330C67ED71E00E946A0CFC
:103FD000B501A4010E94330C6BED71E00E946A0CE4
:103FE000B701A6010E94330CBC01CE018F579F4F31
:103FF0000E94B40CCE0181599F4F0E94E30CC8016E
:104000000E94E30CCB57DF4F88819981C558D0407F
:10401000E1961FAE1EAEE197E3961FAE1EAEE3978C
:10402000E5961FAE1EAEE5974AE0B1010E947623E9
:10403000F10101900020E9F73197AF0142195309CE
:10404000B101CE0181599F4F0E94930C61EC71E048
:10405000C8010E94CE0C6FED71E0C1010E94CE0C30
:10406000B801C1010E94800C6CEF71E00E946A0CE3
:10407000BE0161597F4F0E94800C60E472E00E9493
:104080006A0CBE016F577F4F0E94800CBC01CE01AD
:1040900085589F4F0E94B40CC1010E94E30CC801D7
:1040A0000E94E30CCE0181599F4F0E94E30CC1583E
:1040B000DF4F48815981CF57D040ED966EAD7FAD2F
:1040C000ED978BED93E00E94841468EE73E080E03E
:1040D00090E00E9483018BED93E00E94D90D88232C
:1040E00009F4B2C164EA71E0CE018B589F4F0E947F
:1040F000CE0C8BED93E00E944615892B79F08BED69
:1041000093E00E94681689831A8241E050E0B10171
:10411000CE018B589F4F0E94F10BEBCFEB96CEACAC
:10412000DFACEB97C114D10409F489C1E796EEAC7A
:10413000FFACE7976BE770E0C7010E940C2A00977D
:1041400009F47DC18E199F098F3F980709F477C143
:104150005C01C816D90610F456016C0164EA71E0DE
:10416000CE0181599F4F0E94CE0CEB96EEACFFAC76
:10417000EB97AE14BF0458F5CE14DF0408F47601B3
:10418000E796EEADFFADE797EE0DFF1DD0801082F4
:10419000E7966EAD7FADE7976A0D7B1D61157105E2
:1041A00009F450C0FB0101900020E9F73197AF01FD
:1041B000461B570BCE0181599F4F0E94930CE796E7
:1041C0008EAD9FADE797E80EF91EF701D08280E033
:1041D00091E0F80191838083128214821382C9577F
:1041E000DF4F88819981C758D040968B858B178A7D
:1041F00084E0808F8FEF818F168EE596CEACDFAC9A
:10420000E597E196EEACFFACE19760E071E0C9574D
:10421000DF4F88819981C758D0400E943A07F80142
:104220001282A080B180F80183819481009781F08F
:10423000FC0120813181F80134832383B5010E9480
:104240007F07F1CFCE0181599F4F0E94210CB7CF3C
:10425000168E1A8309831C821B821E821D821F8276
:10426000F986E886EC0CFD1CFB86EA861D861F8716
:104270000E874AE0C557DF4F68817981CB58D0401F
:10428000C1010E94AB1B8B819C81009731F0E981B9
:10429000FA81608171810E947F071A83098388E512
:1042A00092E09C838B83C1010E94B10B6093C0029A
:1042B0007093C1028093C2029093C3021A83098350
:1042C000EBE5F2E0FC83EB83C1010E94B10B60934C
:1042D000BC027093BD028093BE029093BF021A830A
:1042E00009838EE592E09C838B83C1010E94B10B10
:1042F0006093B8027093B9028093BA029093BB02A4
:104300001A83098381E692E09C838B83C1010E941A
:10431000B10B6093D4027093D5028093D602909330
:10432000D7021A83098383E692E09C838B83C101C1
:104330000E94B10B6093C4027093C5028093C602C1
:104340009093C70265E672E088E093E00E94E1097D
:1043500065E572E088E093E00E94E1096BE772E0B6
:1043600088E093E00E94E1096091C0027091C1026F
:104370008091C2029091C3020E94860A60E872E0B6
:1043800088E093E00E94E1096091BC027091BD0257
:104390008091BE029091BF020E94860A65E872E099
:1043A00088E093E00E94E1096091B8027091B9023F
:1043B0008091BA029091BB020E94860A6AE872E07C
:1043C00088E093E00E94E1096091D4027091D502E7
:1043D0008091D6029091D7020E94860A61E972E02C
:1043E00088E093E00E94E1096091C4027091C502E7
:1043F0008091C6029091C7020E94860AF801E0806F
:10440000F180F80183819481009751F0FC012081B3
:104410003181F80134832383B7010E947F07F1CFF4
:1044200060817181C957DF4F88819981C758D04019
:104430000E943A07CE0181599F4F0E94E30CCE01A2
:104440008B589F4F0E94E30C8BED93E00E94FB0D75
:1044500067E972E088E093E00E94E10965E572E0B7
:1044600088E093E00E94E109CE0185589F4F0E94A9
:10447000E30CCE018F579F4F0E94E30C20E030E009
:1044800040E85FE36091D4027091D5028091D6023A
:104490009091D7020E94D7258111CDC02091CC02E6
:1044A0003091CD024091CE025091CF026091C40272
:1044B0007091C5028091C6029091C7020E946E273A
:1044C0006B017C01C092C802D092C902E092CA027C
:1044D000F092CB022091C0023091C1024091C20201
:1044E0005091C3020E943D262B013C012091BC0249
:1044F0003091BD024091BE025091BF02C701B6018A
:104500000E943D262091B4023091B5024091B6023E
:104510005091B7020E946F274B015C0120E030E010
:104520004FE753E40E940A2818160CF4A9C08092A1
:10453000B4029092B502A092B602B092B70220E007
:1045400030E0A9016091B4027091B5028091B60289
:104550009091B7020E94D72587FF08C01092B4023D
:104560001092B5021092B6021092B7022091B002DA
:104570003091B1024091B2025091B302C701B6012D
:104580000E946E272091B8023091B9024091BA0280
:104590005091BB020E943D264B015C012091B40268
:1045A0003091B5024091B6025091B702C301B201F9
:1045B0000E946F279B01AC01C501B4010E946F27C7
:1045C0006093D0027093D1028093D2029093D30271
:1045D000C092B002D092B102E092B202F092B30265
:1045E00020E030E04FE753E40E940A28181664F4F4
:1045F00080E090E0AFE7B3E48093D0029093D102E3
:10460000A093D202B093D30220E030E0A9016091E0
:10461000D0027091D1028091D2029091D3020E9477
:10462000D72587FF08C01092D0021092D1021092B5
:10463000D2021092D30269EA72E088E093E00E940D
:10464000E1096091D0027091D1028091D2029091E3
:10465000D3020E94860A8091DA029091DB02909345
:10466000D9028093D80280E090E0892B09F40ACC2B
:104670000E942B02882309F4FDCB0E940000FACB94
:1046800080E090E0AFE7B3E48093B4029093B5028A
:10469000A093B602B093B70252CFEF920F931F933D
:1046A000CF93DF93E80134E047FD34E1042E000CA2
:1046B000550B57FF03C0519541955109E32E022F29
:1046C000242FAE010E949023CE01DF91CF911F9144
:1046D0000F91EF900895BB274A3031F4992322F4CB
:1046E000BDE2909581959F4F0C947723BB27FB01EA
:1046F0005527AA27880F991FAA1FA41710F0A41BDB
:1047000083955051B9F7A05DAA3308F0A95DA19334
:10471000009779F7B111B1931192CB010C94C72591
:10472000A9E0B0E0E6E9F3E20C940C276A01F22E6E
:10473000B02E102FFBE3AF2EA01608F41BE31F5F73
:10474000012F27E0AE014F5F5F4F0E94EF24BC01B5
:104750008981982F9970913009F43FC09BE2E1FC68
:1047600004C09E2D9170E0FC3AC05E2D5071E82F80
:10477000E87083FF46C084E0911101C083E0EF2D13
:10478000E81B8F1508F0E0E0D6018E2F20E25523BC
:1047900051F1992329F0D6019C93C60101966C0131
:1047A00096012D5F3F4FE2FE24C08EE4D6018C932C
:1047B00091E411969C93119712968C93D9018E2FA8
:1047C00090E281111BC0E20FF32FF11D10828EEFDA
:1047D0009FEF2996ECE00C9428279DE2C6CF90E24B
:1047E000C4CF2D9381508111FCCFCE0ED11CE0E0BF
:1047F000D0CF8EE6D6018C9391E6DBCF9D9381508E
:10480000E0CF482F447082FF3DC084E0911101C089
:1048100083E08F1510F4EF2DE81BD6018E2F20E2D8
:10482000552309F1992329F0D6019C93C6010196DD
:104830006C0196012D5F3F4FE2FE1BC089E4D6015B
:104840008C938EE411968C93119786E412968C9338
:10485000D9018E2F90E2882309F4B5CF9D93815022
:10486000FACF2D9381508111FCCFCE0ED11CE0E008
:10487000D9CF89E6D6018C938EE611968C93119749
:1048800086E6E4CF9B0177FF02C030E020E0A1E0A4
:10489000B0E0911102C0B0E0A0E0F9013196AE0F96
:1048A000BF1F8B2C912CBB2009F461C05401EFEF8A
:1048B000AE1ABE0AAA0DBB1DFA161B0619F014F09B
:1048C0004F2D4A1B511188C0E3FC59C07601A42F1B
:1048D000B0E2A1114FC0C40ED11C992309F45BC0F2
:1048E00040E0D6011196F60190836D01552309F43D
:1048F00048C0012F060F9A81582F507184FF03C0C2
:10490000913309F4015010160CF047C0093008F03B
:1049100008E0EEE2FE2E5B01A01AB1088501919439
:10492000819491082F3F320729F4D601FC92F601B9
:1049300031966F016217730794F1021713077CF524
:10494000DB01A21BB30BAA24A394B12CAC0EBD1E99
:10495000AA0DBB1D11968C9121503109D6011196DB
:1049600028153905F4F0F60180836D01DBCFB12CF9
:10497000A12CA0CFF701B1937F01A150AACF911133
:10498000B0CFD601942F50E302C05D9391509111A6
:10499000FCCFC40ED11C40E0ACCF01E0BACF80E325
:1049A000DBCF6217730731F4963388F4953311F433
:1049B000552369F0F6018083FD01842F90E2811177
:1049C00008C0A40FB11D1C9290E080E002CF81E3EB
:1049D000F1CF91938150F3CF911183CF8ACF2830BB
:1049E00008F027E03327DA01990F311D87FD916028
:1049F00000966105710539F432602E5F3D9330E316
:104A00002A95E1F708959F3F30F0803871056105E0
:104A100009F03C5F3C5F3D93913008F08068911D48
:104A2000DF93CF931F930F93FF92EF92192F987FED
:104A30009695E92F96959695E90FFF27EE53FF4F30
:104A400099273327EE24FF24A701E7010590089456
:104A5000079428F4360FE71EF81E491F511D660FF4
:104A6000771F881F991F0694A1F70590079428F4D3
:104A7000E70EF81E491F561FC11D770F881F991F8B
:104A8000661F0694A1F70590079428F4F80E491FB5
:104A9000561FC71FD11D880F991F661F771F0694C9
:104AA000A1F70590079420F4490F561FC71FD81F80
:104AB000990F661F771F881F0694A9F78491109598
:104AC000177041F0D695C79557954795F794E79499
:104AD0001A95C1F7E8E6F0E06894159015913591C4
:104AE0006591959105907FE27395E118F10A430B6A
:104AF000560BC90BD009C0F7E10CF11E431F561F1E
:104B0000C91FD01D7EF4703311F48A95E6CFE89466
:104B1000015030F0080F0AF40027021708F4202F84
:104B20002395022F7A3328F079E37D932A95E9F7CC
:104B300010C07D932A9589F60694979567953795C9
:104B400017951794E118F10A430B560BC90BD009BE
:104B500098F023957E9173957A3308F070E37C93F7
:104B60002013B8F77E9170617D9330F0839571E3E7
:104B70007D9370E32A95E1F71124EF90FF900F9158
:104B80001F91CF91DF91992787FD90950895DC01C2
:104B9000FC01672F71917723E1F7329704C07C9174
:104BA0006D9370836291AE17BF07C8F308950E949A
:104BB000192608F481E00895E89409C097FB3EF4B3
:104BC00090958095709561957F4F8F4F9F4F99235A
:104BD000A9F0F92F96E9BB279395F69587957795D8
:104BE0006795B795F111F8CFFAF4BB0F11F460FF98
:104BF0001BC06F5F7F4F8F4F9F4F16C0882311F0F0
:104C000096E911C0772321F09EE8872F762F05C003
:104C1000662371F096E8862F70E060E02AF09A959E
:104C2000660F771F881FDAF7880F9695879597F993
:104C30000895990F0008550FAA0BE0E8FEEF16162D
:104C40001706E807F907C0F012161306E407F50780
:104C500098F0621B730B840B950B39F40A2661F0F4
:104C6000232B242B252B21F408950A2609F4A14097
:104C7000A6958FEF811D811D08950E9450260C94EA
:104C8000C1260E94B32638F00E94BA2620F0952350
:104C900011F00C94AA260C94B02611240C94F5263D
:104CA0000E94D22670F3959FC1F3950F50E0551FD7
:104CB000629FF001729FBB27F00DB11D639FAA2771
:104CC000F00DB11DAA1F649F6627B00DA11D661FC0
:104CD000829F2227B00DA11D621F739FB00DA11DE1
:104CE000621F839FA00D611D221F749F3327A00D9B
:104CF000611D231F849F600D211D822F762F6A2F37
:104D000011249F5750409AF0F1F088234AF0EE0F9B
:104D1000FF1FBB1F661F771F881F91505040A9F7C8
:104D20009E3F510580F00C94AA260C94F5265F3F17
:104D3000E4F3983ED4F3869577956795B795F79504
:104D4000E7959F5FC1F7FE2B880F911D969587957C
:104D500097F9089597F99F6780E870E060E00895FB
:104D60009FEF80EC089500240A9416161706180683
:104D70000906089500240A9412161306140605065F
:104D80000895092E0394000C11F4882352F0BB0FF0
:104D900040F4BF2B11F460FF04C06F5F7F4F8F4F53
:104DA0009F4F089557FD9058440F551F59F05F3F8E
:104DB00071F04795880F97FB991F61F09F3F79F03D
:104DC00087950895121613061406551FF2CF4695BF
:104DD000F1DF08C0161617061806991FF1CF869541
:104DE0007105610508940895E894BB276627772725
:104DF000CB0197F908950E945F27A59F900DB49F5E
:104E0000900DA49F800D911D112408952F923F9223
:104E10004F925F926F927F928F929F92AF92BF92CA
:104E2000CF92DF92EF92FF920F931F93CF93DF9376
:104E3000CDB7DEB7CA1BDB0B0FB6F894DEBF0FBED3
:104E4000CDBF09942A88398848885F846E847D8420
:104E50008C849B84AA84B984C884DF80EE80FD8022
:104E60000C811B81AA81B981CE0FD11D0FB6F89498
:104E7000DEBF0FBECDBFED010895A1E21A2EAA1B21
:104E8000BB1BFD010DC0AA1FBB1FEE1FFF1FA217FA
:104E9000B307E407F50720F0A21BB30BE40BF50BF7
:104EA000661F771F881F991F1A9469F76095709580
:104EB000809590959B01AC01BD01CF010895A29F03
:104EC000B001B39FC001A39F700D811D1124911DDE
:104ED000B29F700D811D1124911D08955058BB275C
:104EE000AA270E9486270C94C1260E94B32638F078
:104EF0000E94BA2620F039F49F3F19F426F40C944E
:104F0000B0260EF4E095E7FB0C94AA26E92F0E9448
:104F1000D22658F3BA17620773078407950720F063
:104F200079F4A6F50C94F4260EF4E0950B2EBA2F26
:104F3000A02D0B01B90190010C01CA01A00111249F
:104F4000FF27591B99F0593F50F4503E68F11A164B
:104F5000F040A22F232F342F4427585FF3CF4695DC
:104F600037952795A795F0405395C9F77EF41F16FE
:104F7000BA0B620B730B840BBAF09150A1F0FF0FC8
:104F8000BB1F661F771F881FC2F70EC0BA0F621FB4
:104F9000731F841F48F4879577956795B795F795A4
:104FA0009E3F08F0B0CF9395880F08F09927EE0F39
:104FB0009795879508950E94DA2688F09F5798F074
:104FC000B92F9927B751B0F0E1F0660F771F881F0E
:104FD000991F1AF0BA95C9F714C0B13091F00E9428
:104FE000F426B1E008950C94F426672F782F8827D3
:104FF000B85F39F0B93FCCF3869577956795B3954F
:10500000D9F73EF490958095709561957F4F8F4FBD
:105010009F4F08950E94192608F48FEF08950E946B
:105020001926880B990B0895EE0FFF1F0590F49138
:10503000E02D09940F931F93CF93DF938230910556
:1050400010F482E090E0E091F803F091F90330E091
:1050500020E0B0E0A0E0309799F42115310509F483
:105060004AC0281B390B24303105D8F58A819B8131
:105070006115710589F1FB0193838283FE0111C0E3
:10508000408151810281138148175907E0F0481788
:10509000590799F4109761F012960C931297139692
:1050A0001C933296CF01DF91CF911F910F910895FC
:1050B0000093F8031093F903F4CF2115310551F053
:1050C0004217530738F0A901DB019A01BD01DF0146
:1050D000F801C1CFEF01F9CF9093F9038093F80362
:1050E000CDCFFE01E20FF31F81939193225031093E
:1050F00039832883D7CF2091F6033091F703232BF0
:1051000041F420910C0130910D013093F70320936D
:10511000F60320910A0130910B012115310541F46C
:105120002DB73EB740910E0150910F01241B350B56
:10513000E091F603F091F703E217F307A0F42E1BBA
:105140003F0B2817390778F0AC014E5F5F4F2417EB
:10515000350748F04E0F5F1F5093F7034093F60357
:10516000819391939FCFF0E0E0E09CCFCF93DF93CA
:105170000097E9F0FC01329713821282A091F803A4
:10518000B091F903ED0130E020E01097A1F4208107
:105190003181820F931F2091F6033091F703281776
:1051A000390709F061C0F093F703E093F603DF914C
:1051B000CF910895EA01CE17DF07E8F54A815B81B8
:1051C0009E0141155105B1F7E901FB83EA8349913D
:1051D0005991C40FD51FEC17FD0761F480819181AF
:1051E0000296840F951FE9019983888382819381B8
:1051F0009B838A83F0E0E0E012968D919C91139757
:105200000097B9F52D913C911197CD010296820F2F
:10521000931F2091F6033091F7032817390739F6C9
:10522000309751F51092F9031092F803B093F703F9
:10523000A093F603BCCFD383C28340815181840FF6
:10524000951FC817D90761F44E5F5F4F8881998118
:10525000480F591F518340838A819B8193838283A6
:105260002115310509F0B0CFF093F903E093F8036D
:105270009ECFFD01DC01C0CF13821282D7CFB0E0F8
:10528000A0E0E5E4F9E20C9408278C01009751F4C2
:10529000CB010E941A288C01C801CDB7DEB7E0E12E
:1052A0000C942427FC01E60FF71F9C0122503109C2
:1052B000E217F30708F49DC0D901CD91DC91119755
:1052C000C617D70798F0C530D10530F3CE01049743
:1052D0008617970708F3C61BD70B2297C193D19364
:1052E0006D937C93CF010E94B628D6CF5B01AC1A98
:1052F000BD0A4C018C0E9D1EA091F803B091F903DC
:10530000512C412CF12CE12C109731F58091F603B2
:105310009091F7038815990509F05CC04616570669
:1053200008F058C080910A0190910B01009741F458
:105330008DB79EB740910E0150910F01841B950BC4
:10534000E817F90708F055C0F093F703E093F60368
:10535000F90171836083A0CF8D919C911197129672
:105360006C90129713967C901397A815B90559F570
:105370006C0142E0C40ED11CCA14DB0420F1AC0164
:105380004A195B09DA011296159780F062827382DE
:1053900051834083D9016D937C93E114F10471F042
:1053A000D7011396FC93EE93129776CF22968C0F2B
:1053B0009D1FF90191838083F301EFCFF093F903EF
:1053C000E093F80369CF4816590608F42C017D01D3
:1053D000D3019ACFCB010E941A287C01009749F093
:1053E000AE01B8010E94FC29C8010E94B6288701BD
:1053F00053CF10E000E050CFFB01DC0102C0019070
:105400000D9241505040D8F70895DC0101C06D93D2
:1054100041505040E0F70895FC018191861721F03A
:105420008823D9F7992708953197CF010895FB0173
:10543000DC0101900D920020E1F70895F894FFCF70
:105440001A0100C05434413030310000FA038000AA
:1054500001005E00000000000000501DEB0C1D0C60
:10546000000000002D044A14BB045D0159013E16E2
:10547000C5103A13D511C00D65049D19340EDF1601
:105480001F16B404A404A0049C04000000006102E0
:10549000C101EE01AE021F02FD0111020000000079
:1054A0004E04841441142C1446156816D410B812F6
:1054B000101A8216FB0DD90DD809E009EE0CD5099A
:1054C000D3094304C909B5169B1A8B16C5090000F8
:1054D00000003C0A2F2F22225C5C6208660C6E0AD8
:1054E000720D7409006E616E00696E66006F7666FB
:1054F00000747275650066616C7365006E756C6C26
:10550000003139322E3136382E302E31313400749C
:105510003D002674703D0026733D0026653D005019
:105520004F5354202F706C616E7420485454502F88
:10553000312E310D0A486F73743A20000D0A436F03
:105540006E74656E742D547970653A206170706C5C
:1055500069636174696F6E2F782D7777772D666F29
:10556000726D2D75726C656E636F6465640D0A43B0
:105570006F6E74656E742D4C656E6774683A2000AA
:105580000D0A436F6E6E656374696F6E3A20636CCB
:105590006F73650D0A0D0A006B70006B69006B6418
:1055A000006D0073004461646F73204A534F4E20B6
:1055B000726563656269646F733A004B703A2000EC
:1055C0004B693A20004B643A20004D4F44453A2045
:1055D000005345543A2000436F6E6578C3A36F2093
:1055E000666563686164612E005049443A2000009A
:107E0000112484B714BE81FFF0D085E080938100F7
:107E100082E08093C00088E18093C10086E0809377
:107E2000C20080E18093C4008EE0C9D0259A86E02C
:107E300020E33CEF91E0309385002093840096BBD3
:107E4000B09BFECF1D9AA8958150A9F7CC24DD24C4
:107E500088248394B5E0AB2EA1E19A2EF3E0BF2EE7
:107E6000A2D0813461F49FD0082FAFD0023811F036
:107E7000013811F484E001C083E08DD089C08234E0
:107E800011F484E103C0853419F485E0A6D080C0E4
:107E9000853579F488D0E82EFF2485D0082F10E0AE
:107EA000102F00270E291F29000F111F8ED06801E7
:107EB0006FC0863521F484E090D080E0DECF843638
:107EC00009F040C070D06FD0082F6DD080E0C81688
:107ED00080E7D80618F4F601B7BEE895C0E0D1E017
:107EE00062D089930C17E1F7F0E0CF16F0E7DF06D8
:107EF00018F0F601B7BEE89568D007B600FCFDCFD4
:107F0000A601A0E0B1E02C9130E011968C91119780
:107F100090E0982F8827822B932B1296FA010C0160
:107F200087BEE89511244E5F5F4FF1E0A038BF0790
:107F300051F7F601A7BEE89507B600FCFDCF97BE46
:107F4000E89526C08437B1F42ED02DD0F82E2BD052
:107F50003CD0F601EF2C8F010F5F1F4F84911BD097
:107F6000EA94F801C1F70894C11CD11CFA94CF0C13
:107F7000D11C0EC0853739F428D08EE10CD085E9AC
:107F80000AD08FE07ACF813511F488E018D01DD067
:107F900080E101D065CF982F8091C00085FFFCCF94
:107FA0009093C60008958091C00087FFFCCF809118
:107FB000C00084FD01C0A8958091C6000895E0E648
:107FC000F0E098E1908380830895EDDF803219F02E
:107FD00088E0F5DFFFCF84E1DECF1F93182FE3DFCA
:107FE0001150E9F7F2DF1F91089580E0E8DFEE27F6
:047FF000FF270994CA
:027FFE00040479
:00000001FF
